:1000000012C0189518951895189518951895189563
:100010001895189518951895189518951895189578
:100020001895189518958FE58DBFC0E2E8EB4E2E18
:1000300084E08EBFD4E0F3E05F2EA89584B7082E4D
:10004000877F84BF88E1992781BD91BDEEEFF3E002
:10005000A0E6B0E088278D933197E9F789D466242C
:1000600070D466D48CE0CCD4E0E8F0E080E4C8D46E
:1000700058E0C895802DBED431965A95D1F704C06A
:1000800020040C1F0C042020889A899A8A988B9A45
:10009000929A02D0F894FFCF8B9AE4E1F0E088E7DF
:1000A00090E00197939ACFD49398CDD4482F492BC1
:1000B000C1F7909A829901C003D051D07CD00895A5
:1000C0008B9AEEE1F0E088E790E00197939ABBD439
:1000D0009398B9D4482F492BC1F781E08093A800A9
:1000E0000091A800083010F009F01DC0A42DB52D16
:1000F000E0E8FBE002D5E8EAF0E00191112742E0F8
:1001000050E0F1D4EEEFFFEFE00FF11FD2017BE7FB
:100110000FD584E190E0CBD4A8EAB0E08C918F5F5A
:100120008C9308F4DDCF8CE06BD40BD401D4E2E8DF
:10013000FBE0F8D304D4E2E9FBE0F4D38B9AECE3E0
:10014000F0E088E790E00197939A7DD493987BD470
:10015000482F492BC1F78CED95E0A9D4089581E093
:100160008093A8000091A800083010F009F022C088
:10017000E8EAF0E00191112742E050E0B4D4EEEF5C
:10018000FFEFE00FF11FA8EAB0E00D91112742E068
:1001900050E0A9D4A6E6B0E0A00FB11F91E0D3D4FF
:1001A00084E190E084D4A8EAB0E08C918F5F8C93D6
:1001B00008F4D8CF0895C5D3BBD3E0EAFBE0B2D3AF
:1001C00080E018D4B9D38DE01BD48B9AECE3F0E037
:1001D00088E790E00197939A36D4939834D4482FC7
:1001E000492BC1F780E08093600084EF91E05FD4F9
:1001F00037D4A1E6B0E00C93E0ECF8E0A1E6B0E083
:100200008C91992783D4A3E6B0E077D4A3E6B0E03D
:10021000E0EBFBE0A2D409F001C0CDDFA0E1B0E04B
:10022000BA93AA93E3E6F0E0D20177D485E055D4FF
:1002300064D0249685E04DD4013009F05CC08B9ADF
:10024000E2E3F0E088E790E00197939AFCD393987B
:10025000FAD3482F492BC1F78B9AE8E2F0E088E700
:1002600090E00197939AEFD39398EDD3482F492BC1
:10027000C1F7A0E6B0E08C918F5F8C938FEB10916B
:1002800060006ED3E4EBFBE04DD3E3E6F0E0A0E6E4
:10029000B0E00D91112742E050E025D4A6E9B0E08E
:1002A000A00FB11F3AD400916000083009F020C0BF
:1002B0009CD000916200083009F419C08B9AE0E5E7
:1002C000F0E088E790E00197939ABDD39398BBD371
:1002D000482F492BC1F735D32BD3E6EBFBE022D3D4
:1002E0008CE08ED384EF91E0E2D365DF01C0AFD024
:1002F0008CE291E0DCD37CCF0895A881B981EEEB4C
:10030000FBE02BD481E009F080E08F93A881B981D4
:10031000E0E8FBE022D481E009F080E09F91892BA6
:100320008F93A881B981E0ECFBE017D481E009F05C
:1003300080E09F91892B8F93A881B981E2ECFBE04B
:100340000CD481E009F080E09F91892B8F93A881E4
:10035000B981E4ECFBE001D481E009F080E09F91F9
:10036000892B8F93A881B981E6ECFBE0F6D381E07D
:1003700009F080E09F91892B8F93A881B981E8ECE7
:10038000FBE0EBD381E009F080E09F91892B8F9314
:10039000A881B981EAECFBE0E0D381E009F080E0DC
:1003A0009F91892B8F93A881B981ECECFBE0D5D389
:1003B00081E009F080E09F91892B8F93A881B9811A
:1003C000EEECFBE0CAD381E009F080E09F91892B3D
:1003D000882309F405C081E0AA81BB818C9304C005
:1003E00080E0AA81BB818C93089580E080936200B5
:1003F00081E08093A8000091A800083010F009F077
:1004000025C0E8EAF0E00191112742E050E06BD30B
:10041000E6E6F0E0E00FF11FA8EAB0E00D91112749
:1004200042E050E060D3A6E9B0E0A00FB11F97D33F
:1004300009F005C0A2E6B0E08C918F5F8C93A8EA2A
:10044000B0E08C918F5F8C9308F4D5CF089579D26A
:100450006FD28CE0D5D2E0EDFBE064D270D2E2EE58
:10046000FBE060D28B9AE4E6F0E088E790E0019749
:10047000939AE9D29398E7D2482F492BC1F78B9AE8
:10048000E0E5F0E088E790E00197939ADCD293985A
:10049000DAD2482F492BC1F78B9AECE3F0E088E7DA
:1004A00090E00197939ACFD29398CDD2482F492BC1
:1004B000C1F784EF91E0FBD2D3D2A1E6B0E00C9378
:1004C000E0ECF8E0A1E6B0E08C9199271FD3A3E619
:1004D000B0E013D3A3E6B0E0E0E8FBE03ED309F0E0
:1004E00024C082B392E0892782BB91990EC08B9A77
:1004F000E4E1F0E088E790E00197939AA4D2939822
:10050000A2D2482F492BC1F70DC08B9AE8E2F0E048
:1005100088E790E00197939A96D2939894D2482FC7
:10052000492BC1F784EF91E0C2D2A3E6B0E0ECEE34
:10053000FBE013D309F001C03EDEA3E6B0E0E0EC3F
:10054000FBE00BD309F001C002D0B6CF0895F9D17A
:10055000EFD1E2EFFBE0E6D180E04CD2F0D1E2E077
:10056000FCE0E0D18B9AECE3F0E088E790E00197C3
:10057000939A69D2939867D2482F492BC1F7DCD15F
:100580008DE03ED280E08093600084EF91E08FD2D6
:1005900067D2A1E6B0E00C93E0ECF8E0A1E6B0E0B1
:1005A0008C919927B3D2A3E6B0E0A7D2A3E6B0E03E
:1005B000E0EBFBE0D2D209F001C0C9DFA3E6B0E076
:1005C000ECEEFBE0CAD209F001C0F5DDA0E1B0E03D
:1005D000BA93AA93E3E6F0E0D2019FD285E07DD200
:1005E0008CDE249685E075D2013009F03DC08B9AEF
:1005F000E2E3F0E088E790E00197939A24D29398A1
:1006000022D2482F492BC1F78B9AE8E2F0E088E725
:1006100090E00197939A17D2939815D2482F492BBF
:10062000C1F7A0E6B0E08C918F5F8C93E3E6F0E039
:10063000A0E6B0E00D91112742E050E054D2A6E7C9
:10064000B0E0A00FB11F69D28FEB1091600088D18C
:10065000E4EBFBE067D18CE291E029D200916000ED
:10066000083009F001C002D093CF089580E0809354
:10067000600067D15DD1E4E1FCE054D180E0BAD103
:100680008B9AECE3F0E088E790E00197939ADBD156
:100690009398D9D1482F492BC1F74ED184EF91E0DF
:1006A00006D2DED1A1E6B0E00C93E0ECF8E0A1E6E2
:1006B000B0E08C9199272AD2A3E6B0E01ED2A3E63F
:1006C000B0E0E0EBFBE049D209F001C0CFDFA0E1F0
:1006D000B0E0BA93AA93E3E6F0E0D2011ED285E03F
:1006E000FCD10BDE249685E0F4D1013009F0B4C0D2
:1006F0008B9AE2E3F0E088E790E00197939AA3D128
:100700009398A1D1482F492BC1F78B9AE8E2F0E0EA
:1007100088E790E00197939A96D1939894D1482FC7
:10072000492BC1F7A0E6B0E08C918F5F8C93E3E694
:10073000F0E0A0E6B0E00D91112742E050E0D3D107
:10074000A6E8B0E0A00FB11FE8D18FEB10916000D8
:1007500007D1E4EBFBE0E6D08CE291E0A8D1009178
:100760006000083009F078C079D08CE049D1009160
:100770006200083009F05AC0E4D0DAD0E4E2FCE0CC
:10078000D1D08B9AE4E6F0E088E790E00197939A65
:100790005AD1939858D1482F492BC1F78B9AE0E54D
:1007A000F0E088E790E00197939A4DD193984BD170
:1007B000482F492BC1F78B9AECE3F0E088E790E0F3
:1007C0000197939A40D193983ED1482F492BC1F776
:1007D00081E08093A8000091A800083010F009F093
:1007E00022C0E8EAF0E00191112742E050E07BD11D
:1007F000EEEFFFEFE00FF11FA8EAB0E00D91112737
:1008000042E050E070D1A6E7B0E0A00FB11F7BE757
:100810008FD184E190E04BD1A8EAB0E08C918F5F5A
:100820008C9308F4D8CF9BDCC6DC16C08B9AE0E52D
:10083000F0E088E790E00197939A05D1939803D16F
:10084000482F492BC1F77DD073D0E6EBFBE06AD08F
:1008500084EF91E02CD17BDE24CF089580E080935B
:10086000620081E08093A8000091A800083010F099
:1008700009F025C0E8EAF0E00191112742E050E0DC
:1008800032D1E6E8F0E0E00FF11FA8EAB0E00D9108
:10089000112742E050E027D1A6E7B0E0A00FB11F3A
:1008A0005ED109F005C0A2E6B0E08C918F5F8C9319
:1008B000A8EAB0E08C918F5F8C9308F4D5CF0895AF
:1008C00031003200330000340035003600003700BC
:1008D000380039000045786974003000436C7300BB
:1008E000000004D000D100FC0CD008950024E8944E
:1008F00057FF02C009D0689400F80BD010F801240B
:10090000089502D009D00895509540954F5F5F4FEC
:100910000895E89417FF0895009510950F5F1F4FF5
:1009200068940895EFD0802D11F064D0FBCF089526
:1009300082E066D01AD016C082E062D016D080EC79
:100940005FC081E05DD011D080E85AC08FE72130D0
:1009500039F08FEB223021F08FE8233009F08FEC53
:10096000810F4EC080E84CD0089583E099279FC046
:100970008AEF90E09CD0A09AA19AA29AA39AA49AF6
:10098000A59AAD9885E090E092D0AC98A898A998E7
:10099000AA9AAB9AAC9AEF93FF93E5E1F0E050D0BE
:1009A000FF91EF91AC9880D0AC9AEF93FF93E5E183
:1009B000F0E046D0FF91EF91AC9876D0AC9AEF93EF
:1009C000FF93E5E1F0E03CD0FF91EF91AC986CD063
:1009D000AB98AC9AEF93FF93E5E1F0E031D0FF9153
:1009E000EF91AC9861D088E20BD08EE009D086E020
:1009F00007D00895AD9A829505D004D055D00895BA
:100A0000AD98F9CF859510F4AB9A01C0AB98859558
:100A100010F4AA9A01C0AA98859510F4A99A01C069
:100A2000A998859510F4A89A01C0A898AC9AEF935C
:100A3000FF93E5E1F0E004D0FF91EF91AC980895C9
:100A40003197F1F70895AE2FBF2F11974A2F4B2BF7
:100A5000E1F70895689462F80895E89462F80895BB
:100A600000E18FEF88BB8FE087BB80EF88BB17D09A
:100A7000B49B00E0B59B04E0B69B08E0B79B0CE09C
:100A800080EF87BB8FE088BB0AD0B09B80E0B19B32
:100A900081E0B29B82E0B39B83E0080F089584E17C
:100AA00000008A95E9F7089581E090E000C0EF9397
:100AB000FF93EE27E82BE92B31F0EAEFF0E03197D6
:100AC000F1F70197D1F7FF91EF910895481A590A6C
:100AD0000895481A8827580A089599275A924A92E1
:100AE000480E591E08950F92B801469F8001479FF6
:100AF000100D569F100D0F90089504D00D920020F8
:100B0000E1F70895C8953196002008950196019760
:100B100019F0F8DFF1F7FBCF089581918D938823C9
:100B2000E1F70895E199FECFEEBBFFBB3196089542
:100B3000F9DF8D917B3729F48DBBE29AE19A882306
:100B4000B9F777270895EEDFE09A8DB38D93882368
:100B500019F09A95C1F79D930895689401C0E8949F
:100B6000AF93BF938D9116F0919102C0CBDF902D82
:100B7000891718F011F48823A9F7BF91AF91089550
:100B800031004D656D6F6579204572617365642133
:100B90000000506173733D313131313131313100F9
:100BA00050617373776F72643F2020436C733D0014
:100BB000436C73002A004572726F7221000030008E
:100BC0003200330034003500360037003800390079
:100BD000313D52656C617920202020204578697470
:100BE0000000323D4368616E6765000045786974B6
:100BF00000004E657720506173733F2020436C7373
:100C00003D0020202020202020202020202045786A
:100C100069740000436F6E6669726D3A202020434C
:100C20006C733D0050617373204368616E67656447
:020C30002100A1
:00000001FF
